{
  "_format": "hh-sol-artifact-1",
  "contractName": "VehicleNFT",
  "sourceName": "contracts/VehicleNFT.sol",
  "abi": [
    {
      "inputs": [],
      "stateMutability": "nonpayable",
      "type": "constructor"
    },
    {
      "inputs": [
        {
          "internalType": "address",
          "name": "sender",
          "type": "address"
        },
        {
          "internalType": "uint256",
          "name": "tokenId",
          "type": "uint256"
        },
        {
          "internalType": "address",
          "name": "owner",
          "type": "address"
        }
      ],
      "name": "ERC721IncorrectOwner",
      "type": "error"
    },
    {
      "inputs": [
        {
          "internalType": "address",
          "name": "operator",
          "type": "address"
        },
        {
          "internalType": "uint256",
          "name": "tokenId",
          "type": "uint256"
        }
      ],
      "name": "ERC721InsufficientApproval",
      "type": "error"
    },
    {
      "inputs": [
        {
          "internalType": "address",
          "name": "approver",
          "type": "address"
        }
      ],
      "name": "ERC721InvalidApprover",
      "type": "error"
    },
    {
      "inputs": [
        {
          "internalType": "address",
          "name": "operator",
          "type": "address"
        }
      ],
      "name": "ERC721InvalidOperator",
      "type": "error"
    },
    {
      "inputs": [
        {
          "internalType": "address",
          "name": "owner",
          "type": "address"
        }
      ],
      "name": "ERC721InvalidOwner",
      "type": "error"
    },
    {
      "inputs": [
        {
          "internalType": "address",
          "name": "receiver",
          "type": "address"
        }
      ],
      "name": "ERC721InvalidReceiver",
      "type": "error"
    },
    {
      "inputs": [
        {
          "internalType": "address",
          "name": "sender",
          "type": "address"
        }
      ],
      "name": "ERC721InvalidSender",
      "type": "error"
    },
    {
      "inputs": [
        {
          "internalType": "uint256",
          "name": "tokenId",
          "type": "uint256"
        }
      ],
      "name": "ERC721NonexistentToken",
      "type": "error"
    },
    {
      "inputs": [
        {
          "internalType": "address",
          "name": "owner",
          "type": "address"
        }
      ],
      "name": "OwnableInvalidOwner",
      "type": "error"
    },
    {
      "inputs": [
        {
          "internalType": "address",
          "name": "account",
          "type": "address"
        }
      ],
      "name": "OwnableUnauthorizedAccount",
      "type": "error"
    },
    {
      "anonymous": false,
      "inputs": [
        {
          "indexed": true,
          "internalType": "address",
          "name": "owner",
          "type": "address"
        },
        {
          "indexed": true,
          "internalType": "address",
          "name": "approved",
          "type": "address"
        },
        {
          "indexed": true,
          "internalType": "uint256",
          "name": "tokenId",
          "type": "uint256"
        }
      ],
      "name": "Approval",
      "type": "event"
    },
    {
      "anonymous": false,
      "inputs": [
        {
          "indexed": true,
          "internalType": "address",
          "name": "owner",
          "type": "address"
        },
        {
          "indexed": true,
          "internalType": "address",
          "name": "operator",
          "type": "address"
        },
        {
          "indexed": false,
          "internalType": "bool",
          "name": "approved",
          "type": "bool"
        }
      ],
      "name": "ApprovalForAll",
      "type": "event"
    },
    {
      "anonymous": false,
      "inputs": [
        {
          "indexed": true,
          "internalType": "uint256",
          "name": "tokenId",
          "type": "uint256"
        },
        {
          "indexed": false,
          "internalType": "enum VehicleNFT.DeliveryStage",
          "name": "newStage",
          "type": "uint8"
        }
      ],
      "name": "DeliveryStageAdvanced",
      "type": "event"
    },
    {
      "anonymous": false,
      "inputs": [
        {
          "indexed": true,
          "internalType": "address",
          "name": "previousOwner",
          "type": "address"
        },
        {
          "indexed": true,
          "internalType": "address",
          "name": "newOwner",
          "type": "address"
        }
      ],
      "name": "OwnershipTransferred",
      "type": "event"
    },
    {
      "anonymous": false,
      "inputs": [
        {
          "indexed": true,
          "internalType": "uint256",
          "name": "tokenId",
          "type": "uint256"
        },
        {
          "indexed": false,
          "internalType": "uint256",
          "name": "timestamp",
          "type": "uint256"
        },
        {
          "indexed": false,
          "internalType": "string",
          "name": "description",
          "type": "string"
        },
        {
          "indexed": true,
          "internalType": "address",
          "name": "addedBy",
          "type": "address"
        }
      ],
      "name": "ServiceEventAdded",
      "type": "event"
    },
    {
      "anonymous": false,
      "inputs": [
        {
          "indexed": true,
          "internalType": "uint256",
          "name": "tokenId",
          "type": "uint256"
        },
        {
          "indexed": false,
          "internalType": "string",
          "name": "note",
          "type": "string"
        }
      ],
      "name": "ServiceRecordAdded",
      "type": "event"
    },
    {
      "anonymous": false,
      "inputs": [
        {
          "indexed": true,
          "internalType": "address",
          "name": "from",
          "type": "address"
        },
        {
          "indexed": true,
          "internalType": "address",
          "name": "to",
          "type": "address"
        },
        {
          "indexed": true,
          "internalType": "uint256",
          "name": "tokenId",
          "type": "uint256"
        }
      ],
      "name": "Transfer",
      "type": "event"
    },
    {
      "anonymous": false,
      "inputs": [
        {
          "indexed": true,
          "internalType": "uint256",
          "name": "tokenId",
          "type": "uint256"
        },
        {
          "indexed": false,
          "internalType": "uint256",
          "name": "price",
          "type": "uint256"
        }
      ],
      "name": "VehicleListed",
      "type": "event"
    },
    {
      "anonymous": false,
      "inputs": [
        {
          "indexed": true,
          "internalType": "uint256",
          "name": "tokenId",
          "type": "uint256"
        },
        {
          "indexed": true,
          "internalType": "address",
          "name": "owner",
          "type": "address"
        },
        {
          "indexed": false,
          "internalType": "uint256",
          "name": "price",
          "type": "uint256"
        },
        {
          "indexed": false,
          "internalType": "string",
          "name": "tokenURI",
          "type": "string"
        }
      ],
      "name": "VehicleMinted",
      "type": "event"
    },
    {
      "anonymous": false,
      "inputs": [
        {
          "indexed": true,
          "internalType": "uint256",
          "name": "tokenId",
          "type": "uint256"
        },
        {
          "indexed": true,
          "internalType": "address",
          "name": "from",
          "type": "address"
        },
        {
          "indexed": true,
          "internalType": "address",
          "name": "to",
          "type": "address"
        },
        {
          "indexed": false,
          "internalType": "uint256",
          "name": "price",
          "type": "uint256"
        }
      ],
      "name": "VehiclePurchased",
      "type": "event"
    },
    {
      "anonymous": false,
      "inputs": [
        {
          "indexed": true,
          "internalType": "uint256",
          "name": "tokenId",
          "type": "uint256"
        }
      ],
      "name": "VehicleUnlisted",
      "type": "event"
    },
    {
      "inputs": [
        {
          "internalType": "uint256",
          "name": "tokenId",
          "type": "uint256"
        },
        {
          "internalType": "string",
          "name": "description",
          "type": "string"
        }
      ],
      "name": "addServiceEvent",
      "outputs": [],
      "stateMutability": "nonpayable",
      "type": "function"
    },
    {
      "inputs": [
        {
          "internalType": "uint256",
          "name": "tokenId",
          "type": "uint256"
        },
        {
          "internalType": "string",
          "name": "serviceNote",
          "type": "string"
        }
      ],
      "name": "addServiceRecord",
      "outputs": [],
      "stateMutability": "nonpayable",
      "type": "function"
    },
    {
      "inputs": [
        {
          "internalType": "uint256",
          "name": "tokenId",
          "type": "uint256"
        }
      ],
      "name": "advanceDelivery",
      "outputs": [],
      "stateMutability": "nonpayable",
      "type": "function"
    },
    {
      "inputs": [
        {
          "internalType": "address",
          "name": "to",
          "type": "address"
        },
        {
          "internalType": "uint256",
          "name": "tokenId",
          "type": "uint256"
        }
      ],
      "name": "approve",
      "outputs": [],
      "stateMutability": "nonpayable",
      "type": "function"
    },
    {
      "inputs": [
        {
          "internalType": "address",
          "name": "owner",
          "type": "address"
        }
      ],
      "name": "balanceOf",
      "outputs": [
        {
          "internalType": "uint256",
          "name": "",
          "type": "uint256"
        }
      ],
      "stateMutability": "view",
      "type": "function"
    },
    {
      "inputs": [
        {
          "internalType": "uint256",
          "name": "tokenId",
          "type": "uint256"
        }
      ],
      "name": "burnVehicle",
      "outputs": [],
      "stateMutability": "nonpayable",
      "type": "function"
    },
    {
      "inputs": [
        {
          "internalType": "uint256",
          "name": "tokenId",
          "type": "uint256"
        }
      ],
      "name": "getApproved",
      "outputs": [
        {
          "internalType": "address",
          "name": "",
          "type": "address"
        }
      ],
      "stateMutability": "view",
      "type": "function"
    },
    {
      "inputs": [
        {
          "internalType": "uint256",
          "name": "tokenId",
          "type": "uint256"
        }
      ],
      "name": "getServiceEvents",
      "outputs": [
        {
          "components": [
            {
              "internalType": "uint256",
              "name": "timestamp",
              "type": "uint256"
            },
            {
              "internalType": "string",
              "name": "description",
              "type": "string"
            },
            {
              "internalType": "address",
              "name": "addedBy",
              "type": "address"
            }
          ],
          "internalType": "struct VehicleNFT.ServiceEvent[]",
          "name": "",
          "type": "tuple[]"
        }
      ],
      "stateMutability": "view",
      "type": "function"
    },
    {
      "inputs": [
        {
          "internalType": "uint256",
          "name": "tokenId",
          "type": "uint256"
        }
      ],
      "name": "getServiceRecords",
      "outputs": [
        {
          "components": [
            {
              "internalType": "uint256",
              "name": "timestamp",
              "type": "uint256"
            },
            {
              "internalType": "string",
              "name": "description",
              "type": "string"
            },
            {
              "internalType": "address",
              "name": "addedBy",
              "type": "address"
            }
          ],
          "internalType": "struct VehicleNFT.ServiceEvent[]",
          "name": "",
          "type": "tuple[]"
        }
      ],
      "stateMutability": "view",
      "type": "function"
    },
    {
      "inputs": [
        {
          "internalType": "uint256",
          "name": "tokenId",
          "type": "uint256"
        }
      ],
      "name": "getVehicle",
      "outputs": [
        {
          "components": [
            {
              "internalType": "address",
              "name": "currentOwner",
              "type": "address"
            },
            {
              "internalType": "uint256",
              "name": "price",
              "type": "uint256"
            },
            {
              "internalType": "bool",
              "name": "listed",
              "type": "bool"
            },
            {
              "internalType": "enum VehicleNFT.DeliveryStage",
              "name": "deliveryStage",
              "type": "uint8"
            }
          ],
          "internalType": "struct VehicleNFT.Vehicle",
          "name": "",
          "type": "tuple"
        }
      ],
      "stateMutability": "view",
      "type": "function"
    },
    {
      "inputs": [
        {
          "internalType": "address",
          "name": "owner",
          "type": "address"
        },
        {
          "internalType": "address",
          "name": "operator",
          "type": "address"
        }
      ],
      "name": "isApprovedForAll",
      "outputs": [
        {
          "internalType": "bool",
          "name": "",
          "type": "bool"
        }
      ],
      "stateMutability": "view",
      "type": "function"
    },
    {
      "inputs": [
        {
          "internalType": "uint256",
          "name": "tokenId",
          "type": "uint256"
        },
        {
          "internalType": "uint256",
          "name": "price",
          "type": "uint256"
        }
      ],
      "name": "listVehicle",
      "outputs": [],
      "stateMutability": "nonpayable",
      "type": "function"
    },
    {
      "inputs": [
        {
          "internalType": "address",
          "name": "to",
          "type": "address"
        },
        {
          "internalType": "uint256",
          "name": "price",
          "type": "uint256"
        },
        {
          "internalType": "string",
          "name": "tokenURI_",
          "type": "string"
        }
      ],
      "name": "mintVehicle",
      "outputs": [],
      "stateMutability": "nonpayable",
      "type": "function"
    },
    {
      "inputs": [],
      "name": "name",
      "outputs": [
        {
          "internalType": "string",
          "name": "",
          "type": "string"
        }
      ],
      "stateMutability": "view",
      "type": "function"
    },
    {
      "inputs": [],
      "name": "owner",
      "outputs": [
        {
          "internalType": "address",
          "name": "",
          "type": "address"
        }
      ],
      "stateMutability": "view",
      "type": "function"
    },
    {
      "inputs": [
        {
          "internalType": "uint256",
          "name": "tokenId",
          "type": "uint256"
        }
      ],
      "name": "ownerOf",
      "outputs": [
        {
          "internalType": "address",
          "name": "",
          "type": "address"
        }
      ],
      "stateMutability": "view",
      "type": "function"
    },
    {
      "inputs": [
        {
          "internalType": "uint256",
          "name": "tokenId",
          "type": "uint256"
        }
      ],
      "name": "purchaseVehicle",
      "outputs": [],
      "stateMutability": "payable",
      "type": "function"
    },
    {
      "inputs": [],
      "name": "renounceOwnership",
      "outputs": [],
      "stateMutability": "nonpayable",
      "type": "function"
    },
    {
      "inputs": [
        {
          "internalType": "address",
          "name": "from",
          "type": "address"
        },
        {
          "internalType": "address",
          "name": "to",
          "type": "address"
        },
        {
          "internalType": "uint256",
          "name": "tokenId",
          "type": "uint256"
        }
      ],
      "name": "safeTransferFrom",
      "outputs": [],
      "stateMutability": "nonpayable",
      "type": "function"
    },
    {
      "inputs": [
        {
          "internalType": "address",
          "name": "from",
          "type": "address"
        },
        {
          "internalType": "address",
          "name": "to",
          "type": "address"
        },
        {
          "internalType": "uint256",
          "name": "tokenId",
          "type": "uint256"
        },
        {
          "internalType": "bytes",
          "name": "data",
          "type": "bytes"
        }
      ],
      "name": "safeTransferFrom",
      "outputs": [],
      "stateMutability": "nonpayable",
      "type": "function"
    },
    {
      "inputs": [
        {
          "internalType": "address",
          "name": "operator",
          "type": "address"
        },
        {
          "internalType": "bool",
          "name": "approved",
          "type": "bool"
        }
      ],
      "name": "setApprovalForAll",
      "outputs": [],
      "stateMutability": "nonpayable",
      "type": "function"
    },
    {
      "inputs": [
        {
          "internalType": "bytes4",
          "name": "interfaceId",
          "type": "bytes4"
        }
      ],
      "name": "supportsInterface",
      "outputs": [
        {
          "internalType": "bool",
          "name": "",
          "type": "bool"
        }
      ],
      "stateMutability": "view",
      "type": "function"
    },
    {
      "inputs": [],
      "name": "symbol",
      "outputs": [
        {
          "internalType": "string",
          "name": "",
          "type": "string"
        }
      ],
      "stateMutability": "view",
      "type": "function"
    },
    {
      "inputs": [
        {
          "internalType": "uint256",
          "name": "tokenId",
          "type": "uint256"
        }
      ],
      "name": "tokenURI",
      "outputs": [
        {
          "internalType": "string",
          "name": "",
          "type": "string"
        }
      ],
      "stateMutability": "view",
      "type": "function"
    },
    {
      "inputs": [
        {
          "internalType": "address",
          "name": "from",
          "type": "address"
        },
        {
          "internalType": "address",
          "name": "to",
          "type": "address"
        },
        {
          "internalType": "uint256",
          "name": "tokenId",
          "type": "uint256"
        }
      ],
      "name": "transferFrom",
      "outputs": [],
      "stateMutability": "nonpayable",
      "type": "function"
    },
    {
      "inputs": [
        {
          "internalType": "address",
          "name": "newOwner",
          "type": "address"
        }
      ],
      "name": "transferOwnership",
      "outputs": [],
      "stateMutability": "nonpayable",
      "type": "function"
    },
    {
      "inputs": [
        {
          "internalType": "uint256",
          "name": "tokenId",
          "type": "uint256"
        }
      ],
      "name": "unlistVehicle",
      "outputs": [],
      "stateMutability": "nonpayable",
      "type": "function"
    },
    {
      "inputs": [
        {
          "internalType": "uint256",
          "name": "",
          "type": "uint256"
        }
      ],
      "name": "vehicles",
      "outputs": [
        {
          "internalType": "address",
          "name": "currentOwner",
          "type": "address"
        },
        {
          "internalType": "uint256",
          "name": "price",
          "type": "uint256"
        },
        {
          "internalType": "bool",
          "name": "listed",
          "type": "bool"
        },
        {
          "internalType": "enum VehicleNFT.DeliveryStage",
          "name": "deliveryStage",
          "type": "uint8"
        }
      ],
      "stateMutability": "view",
      "type": "function"
    }
  ],
  "bytecode": "0x60806040523480156200001157600080fd5b50336040518060400160405280601481526020017f56656869636c65204469676974616c205477696e0000000000000000000000008152506040518060400160405280600381526020016215911560ea1b8152508160009081620000769190620001c0565b506001620000858282620001c0565b5050506001600160a01b038116620000b757604051631e4fbdf760e01b81526000600482015260240160405180910390fd5b620000c281620000c9565b506200028c565b600680546001600160a01b038381166001600160a01b0319831681179093556040519116919082907f8be0079c531659141344cd1fd0a4f28419497f9722a3daafe3b4186f6b6457e090600090a35050565b634e487b7160e01b600052604160045260246000fd5b600181811c908216806200014657607f821691505b6020821081036200016757634e487b7160e01b600052602260045260246000fd5b50919050565b601f821115620001bb57600081815260208120601f850160051c81016020861015620001965750805b601f850160051c820191505b81811015620001b757828155600101620001a2565b5050505b505050565b81516001600160401b03811115620001dc57620001dc6200011b565b620001f481620001ed845462000131565b846200016d565b602080601f8311600181146200022c5760008415620002135750858301515b600019600386901b1c1916600185901b178555620001b7565b600085815260208120601f198616915b828110156200025d578886015182559484019460019091019084016200023c565b50858210156200027c5787850151600019600388901b60f8161c191681555b5050505050600190811b01905550565b612a20806200029c6000396000f3fe6080604052600436106101b75760003560e01c8063715018a6116100ec578063b8ba95fa1161008a578063df7ebb7b11610064578063df7ebb7b14610525578063e985e9c514610552578063ed94253214610572578063f2fde38b1461059257600080fd5b8063b8ba95fa14610483578063bf3df6a4146104e5578063c87b56dd1461050557600080fd5b8063969202a9116100c6578063969202a914610403578063a22cb46514610423578063a75076e914610443578063b88d4fde1461046357600080fd5b8063715018a6146103bb5780638da5cb5b146103d057806395d89b41146103ee57600080fd5b8063148fcf8211610159578063580ae35c11610133578063580ae35c1461032d5780636352211e1461034d57806367c842b61461036d57806370a082311461038d57600080fd5b8063148fcf82146102cd57806323b872dd146102ed57806342842e0e1461030d57600080fd5b806306fdde031161019557806306fdde0314610233578063081812fc14610255578063095ea7b31461028d5780630a4d6987146102ad57600080fd5b806301ffc9a7146101bc57806302ffbc54146101f157806303d1ad6214610206575b600080fd5b3480156101c857600080fd5b506101dc6101d7366004612255565b6105b2565b60405190151581526020015b60405180910390f35b6102046101ff366004612272565b610604565b005b34801561021257600080fd5b50610226610221366004612272565b61093c565b6040516101e891906122d1565b34801561023f57600080fd5b50610248610a8a565b6040516101e8919061235b565b34801561026157600080fd5b50610275610270366004612272565b610b1c565b6040516001600160a01b0390911681526020016101e8565b34801561029957600080fd5b506102046102a836600461238a565b610b45565b3480156102b957600080fd5b506102046102c8366004612272565b610b54565b3480156102d957600080fd5b506102046102e8366004612272565b610c56565b3480156102f957600080fd5b506102046103083660046123b4565b610e2b565b34801561031957600080fd5b506102046103283660046123b4565b610eb6565b34801561033957600080fd5b5061020461034836600461249c565b610ed6565b34801561035957600080fd5b50610275610368366004612272565b61103e565b34801561037957600080fd5b50610204610388366004612272565b611049565b34801561039957600080fd5b506103ad6103a83660046124e3565b611163565b6040519081526020016101e8565b3480156103c757600080fd5b506102046111ab565b3480156103dc57600080fd5b506006546001600160a01b0316610275565b3480156103fa57600080fd5b506102486111bf565b34801561040f57600080fd5b5061020461041e3660046124fe565b6111ce565b34801561042f57600080fd5b5061020461043e366004612520565b6112e2565b34801561044f57600080fd5b5061020461045e36600461255c565b6112ed565b34801561046f57600080fd5b5061020461047e3660046125d8565b611472565b34801561048f57600080fd5b506104d561049e366004612272565b6008602052600090815260409020805460018201546002909201546001600160a01b03909116919060ff8082169161010090041684565b6040516101e8949392919061268c565b3480156104f157600080fd5b506102046105003660046126c1565b61148a565b34801561051157600080fd5b50610248610520366004612272565b6116ee565b34801561053157600080fd5b50610545610540366004612272565b611813565b6040516101e89190612718565b34801561055e57600080fd5b506101dc61056d366004612759565b6118ef565b34801561057e57600080fd5b5061022661058d366004612272565b61191d565b34801561059e57600080fd5b506102046105ad3660046124e3565b611a5e565b60006001600160e01b031982166380ac58cd60e01b14806105e357506001600160e01b03198216635b5e139f60e01b145b806105fe57506301ffc9a760e01b6001600160e01b03198316145b92915050565b80600061061082611a9c565b6001600160a01b03160361063f5760405162461bcd60e51b81526004016106369061278c565b60405180910390fd5b6000828152600860205260409020600281015460ff166106a15760405162461bcd60e51b815260206004820152601f60248201527f56656869636c654e46543a206e6f74206c697374656420666f722073616c65006044820152606401610636565b806001015434146106f45760405162461bcd60e51b815260206004820152601b60248201527f56656869636c654e46543a20696e636f727265637420707269636500000000006044820152606401610636565b80546001600160a01b03168061074c5760405162461bcd60e51b815260206004820152601a60248201527f56656869636c654e46543a20696e76616c69642073656c6c65720000000000006044820152606401610636565b336001600160a01b038216036107af5760405162461bcd60e51b815260206004820152602260248201527f56656869636c654e46543a2063616e6e6f7420627579206f776e2076656869636044820152616c6560f01b6064820152608401610636565b81546001600160a01b03191633908117835560028301805461ffff19166101001790556040805160208101909152600081526107ee9183918790611ab7565b6000816001600160a01b03163460405160006040518083038185875af1925050503d806000811461083b576040519150601f19603f3d011682016040523d82523d6000602084013e610840565b606091505b505090508061089d5760405162461bcd60e51b815260206004820152602360248201527f56656869636c654e46543a207061796d656e74207472616e73666572206661696044820152621b195960ea1b6064820152608401610636565b336001600160a01b0316826001600160a01b0316867fcbb96bc04de7475b818d81a7922de35b8965f8a79598e21739eaeda677fba15e86600101546040516108e791815260200190565b60405180910390a4600283015460405186917f36cd892160ae851ed005efa1035397ef9d306b68a10c2138ad46814570bfea8a9161092d91610100900460ff16906127c1565b60405180910390a25050505050565b606081600061094a82611a9c565b6001600160a01b0316036109705760405162461bcd60e51b81526004016106369061278c565b600083815260096020908152604080832080548251818502810185019093528083529193909284015b82821015610a7d5783829060005260206000209060030201604051806060016040529081600082015481526020016001820180546109d6906127cf565b80601f0160208091040260200160405190810160405280929190818152602001828054610a02906127cf565b8015610a4f5780601f10610a2457610100808354040283529160200191610a4f565b820191906000526020600020905b815481529060010190602001808311610a3257829003601f168201915b5050509183525050600291909101546001600160a01b03166020918201529082526001929092019101610999565b5050505091505b50919050565b606060008054610a99906127cf565b80601f0160208091040260200160405190810160405280929190818152602001828054610ac5906127cf565b8015610b125780601f10610ae757610100808354040283529160200191610b12565b820191906000526020600020905b815481529060010190602001808311610af557829003601f168201915b5050505050905090565b6000610b2782611ac2565b506000828152600460205260409020546001600160a01b03166105fe565b610b50828233611afa565b5050565b806000610b6082611a9c565b6001600160a01b031603610b865760405162461bcd60e51b81526004016106369061278c565b60008281526008602052604090205482906001600160a01b03163314610bbe5760405162461bcd60e51b815260040161063690612803565b6000838152600860205260409020600281015460ff16610c195760405162461bcd60e51b815260206004820152601660248201527515995a1a58db195391950e881b9bdd081b1a5cdd195960521b6044820152606401610636565b60028101805460ff1916905560405184907f1ae487d19ecb13f2baae4e16e8fc24ea0289b055abc17798b22801eff375030890600090a250505050565b806000610c6282611a9c565b6001600160a01b031603610c885760405162461bcd60e51b81526004016106369061278c565b600082815260086020526040902080546001600160a01b0316331480610cb857506006546001600160a01b031633145b610d1b5760405162461bcd60e51b815260206004820152602e60248201527f56656869636c654e46543a206e6f7420617574686f72697a656420746f20616460448201526d76616e63652064656c697665727960901b6064820152608401610636565b6000600282810154610100900460ff1690811115610d3b57610d3b612654565b03610d5e576002810180546001919061ff001916610100835b0217905550610de0565b6001600282810154610100900460ff1690811115610d7e57610d7e612654565b03610d98576002818101805461ff00191661010083610d54565b60405162461bcd60e51b815260206004820152601d60248201527f56656869636c654e46543a20616c72656164792064656c6976657265640000006044820152606401610636565b600281015460405184917f36cd892160ae851ed005efa1035397ef9d306b68a10c2138ad46814570bfea8a91610e1e91610100900460ff16906127c1565b60405180910390a2505050565b6001600160a01b038216610e5557604051633250574960e11b815260006004820152602401610636565b6000610e62838333611b07565b9050836001600160a01b0316816001600160a01b031614610eb0576040516364283d7b60e01b81526001600160a01b0380861660048301526024820184905282166044820152606401610636565b50505050565b610ed183838360405180602001604052806000815250611472565b505050565b816000610ee282611a9c565b6001600160a01b031603610f085760405162461bcd60e51b81526004016106369061278c565b33610f128461103e565b6001600160a01b031614610f385760405162461bcd60e51b815260040161063690612803565b6000825111610f825760405162461bcd60e51b815260206004820152601660248201527556656869636c654e46543a20656d707479206e6f746560501b6044820152606401610636565b6040805160608101825242815260208082018581523383850152600087815260098352938420805460018181018355918652929094208351600390930201918255519192839290820190610fd69082612890565b5060409182015160029190910180546001600160a01b0319166001600160a01b039092169190911790555184907fe04dd2501fa1ca1a2bf1b8b0f34ecc0fbe8ad77f3680583182c26f44a0f5f2449061103090869061235b565b60405180910390a250505050565b60006105fe82611ac2565b80600061105582611a9c565b6001600160a01b03160361107b5760405162461bcd60e51b81526004016106369061278c565b6000828152600860205260409020546001600160a01b03163314806110aa57506006546001600160a01b031633145b6111015760405162461bcd60e51b815260206004820152602260248201527f56656869636c654e46543a206e6f7420617574686f72697a656420746f206275604482015261393760f11b6064820152608401610636565b600082815260086020908152604080832080546001600160a01b031916815560018101849055600201805461ffff191690556009909152812061114391612196565b6000828152600a6020526040812061115a916121b7565b610b5082611bfb565b60006001600160a01b03821661118f576040516322718ad960e21b815260006004820152602401610636565b506001600160a01b031660009081526003602052604090205490565b6111b3611c36565b6111bd6000611c63565b565b606060018054610a99906127cf565b8160006111da82611a9c565b6001600160a01b0316036112005760405162461bcd60e51b81526004016106369061278c565b60008381526008602052604090205483906001600160a01b031633146112385760405162461bcd60e51b815260040161063690612803565b600083116112885760405162461bcd60e51b815260206004820152601d60248201527f56656869636c654e46543a207072696365206d757374206265203e20300000006044820152606401610636565b6000848152600860205260409081902060028101805460ff191660019081179091558101859055905185907f524f6dc526b7ea98915b74a8390cc638b4ba5f1ceb002995e851058d15d60bab9061092d9087815260200190565b610b50338383611cb5565b8260006112f982611a9c565b6001600160a01b03160361131f5760405162461bcd60e51b81526004016106369061278c565b8161136c5760405162461bcd60e51b815260206004820152601d60248201527f56656869636c654e46543a20656d707479206465736372697074696f6e0000006044820152606401610636565b6000604051806060016040528042815260200185858080601f016020809104026020016040519081016040528093929190818152602001838380828437600092018290525093855250503360209384015250878152600982526040812080546001818101835591835291839020845160039093020191825591830151929350839290918201906113fc9082612890565b5060409182015160029190910180546001600160a01b0319166001600160a01b0392831617905582820151835160208501519351919092169288927f5a0eaba511c02d6ccdea0339bb42285f3c5bd6641f998b251b8ea3208e1630db926114639290612950565b60405180910390a35050505050565b61147d848484610e2b565b610eb03385858585611d54565b611492611c36565b6001600160a01b0383166114e85760405162461bcd60e51b815260206004820152601d60248201527f56656869636c654e46543a20696e76616c696420726563697069656e740000006044820152606401610636565b600082116115385760405162461bcd60e51b815260206004820152601d60248201527f56656869636c654e46543a207072696365206d757374206265203e20300000006044820152606401610636565b60008151116115995760405162461bcd60e51b815260206004820152602760248201527f56656869636c654e46543a20746f6b656e20555249206d757374206e6f7420626044820152666520656d70747960c81b6064820152608401610636565b60006007600081546115aa90612969565b918290555090506115bb8482611e7f565b6000818152600a602052604090206115d38382612890565b50604080516080810182526001600160a01b03868116825260208083018781526001848601818152600060608701818152898252600890955296909620855181546001600160a01b031916951694909417845590519083015592516002808301805460ff198116931515938417825595519495939493909261ffff1990911661ff0019909116179061010090849081111561167057611670612654565b0217905550905050836001600160a01b0316817fe40befd08ae78836c26c0511327c4a5c6ca994f9d1f13701f0c890f0eebb4b3f85856040516116b4929190612950565b60405180910390a3807f524f6dc526b7ea98915b74a8390cc638b4ba5f1ceb002995e851058d15d60bab8460405161103091815260200190565b60608160006116fc82611a9c565b6001600160a01b0316036117225760405162461bcd60e51b81526004016106369061278c565b6000838152600a60205260408120805461173b906127cf565b80601f0160208091040260200160405190810160405280929190818152602001828054611767906127cf565b80156117b45780601f10611789576101008083540402835291602001916117b4565b820191906000526020600020905b81548152906001019060200180831161179757829003601f168201915b50505050509050600081511161180c5760405162461bcd60e51b815260206004820152601d60248201527f56656869636c654e46543a20746f6b656e20555249206e6f74207365740000006044820152606401610636565b9392505050565b61183b6040805160808101825260008082526020820181905291810182905290606082015290565b81600061184782611a9c565b6001600160a01b03160361186d5760405162461bcd60e51b81526004016106369061278c565b600083815260086020908152604091829020825160808101845281546001600160a01b0316815260018201549281019290925260028082015460ff80821615159585019590955292939192606085019261010090910416908111156118d4576118d4612654565b60028111156118e5576118e5612654565b9052509392505050565b6001600160a01b03918216600090815260056020908152604080832093909416825291909152205460ff1690565b606081600061192b82611a9c565b6001600160a01b0316036119515760405162461bcd60e51b81526004016106369061278c565b600083815260096020908152604080832080548251818502810185019093528083529193909284015b82821015610a7d5783829060005260206000209060030201604051806060016040529081600082015481526020016001820180546119b7906127cf565b80601f01602080910402602001604051908101604052809291908181526020018280546119e3906127cf565b8015611a305780601f10611a0557610100808354040283529160200191611a30565b820191906000526020600020905b815481529060010190602001808311611a1357829003601f168201915b5050509183525050600291909101546001600160a01b0316602091820152908252600192909201910161197a565b611a66611c36565b6001600160a01b038116611a9057604051631e4fbdf760e01b815260006004820152602401610636565b611a9981611c63565b50565b6000908152600260205260409020546001600160a01b031690565b61147d848484611e99565b600080611ace83611a9c565b90506001600160a01b0381166105fe57604051637e27328960e01b815260048101849052602401610636565b610ed18383836001611f49565b600080611b1384611a9c565b90506001600160a01b03831615611b2f57611b2f81848661204f565b6001600160a01b03811615611b6d57611b4c600085600080611f49565b6001600160a01b038116600090815260036020526040902080546000190190555b6001600160a01b03851615611b9c576001600160a01b0385166000908152600360205260409020805460010190555b60008481526002602052604080822080546001600160a01b0319166001600160a01b0389811691821790925591518793918516917fddf252ad1be2c89b69c2b068fc378daa952ba7f163c4a11628f55a4df523b3ef91a4949350505050565b6000611c0a6000836000611b07565b90506001600160a01b038116610b5057604051637e27328960e01b815260048101839052602401610636565b6006546001600160a01b031633146111bd5760405163118cdaa760e01b8152336004820152602401610636565b600680546001600160a01b038381166001600160a01b0319831681179093556040519116919082907f8be0079c531659141344cd1fd0a4f28419497f9722a3daafe3b4186f6b6457e090600090a35050565b6001600160a01b038216611ce757604051630b61174360e31b81526001600160a01b0383166004820152602401610636565b6001600160a01b03838116600081815260056020908152604080832094871680845294825291829020805460ff191686151590811790915591519182527f17307eab39ab6107e8899845ad3d59bd9653f200f220920489ca2b5937696c31910160405180910390a3505050565b6001600160a01b0383163b15611e7857604051630a85bd0160e11b81526001600160a01b0384169063150b7a0290611d96908890889087908790600401612990565b6020604051808303816000875af1925050508015611dd1575060408051601f3d908101601f19168201909252611dce918101906129cd565b60015b611e3a573d808015611dff576040519150601f19603f3d011682016040523d82523d6000602084013e611e04565b606091505b508051600003611e3257604051633250574960e11b81526001600160a01b0385166004820152602401610636565b805160208201fd5b6001600160e01b03198116630a85bd0160e11b14611e7657604051633250574960e11b81526001600160a01b0385166004820152602401610636565b505b5050505050565b610b508282604051806020016040528060008152506120b3565b6001600160a01b038216611ec357604051633250574960e11b815260006004820152602401610636565b6000611ed183836000611b07565b90506001600160a01b038116611efd57604051637e27328960e01b815260048101839052602401610636565b836001600160a01b0316816001600160a01b031614610eb0576040516364283d7b60e01b81526001600160a01b0380861660048301526024820184905282166044820152606401610636565b8080611f5d57506001600160a01b03821615155b1561201f576000611f6d84611ac2565b90506001600160a01b03831615801590611f995750826001600160a01b0316816001600160a01b031614155b8015611fac5750611faa81846118ef565b155b15611fd55760405163a9fbf51f60e01b81526001600160a01b0384166004820152602401610636565b811561201d5783856001600160a01b0316826001600160a01b03167f8c5be1e5ebec7d5bd14f71427d1e84f3dd0314c0f7b2291e5b200ac8c7c3b92560405160405180910390a45b505b5050600090815260046020526040902080546001600160a01b0319166001600160a01b0392909216919091179055565b61205a8383836120cb565b610ed1576001600160a01b03831661208857604051637e27328960e01b815260048101829052602401610636565b60405163177e802f60e01b81526001600160a01b038316600482015260248101829052604401610636565b6120bd8383612131565b610ed1336000858585611d54565b60006001600160a01b038316158015906121295750826001600160a01b0316846001600160a01b03161480612105575061210584846118ef565b8061212957506000828152600460205260409020546001600160a01b038481169116145b949350505050565b6001600160a01b03821661215b57604051633250574960e11b815260006004820152602401610636565b600061216983836000611b07565b90506001600160a01b03811615610ed1576040516339e3563760e11b815260006004820152602401610636565b5080546000825560030290600052602060002090810190611a9991906121f1565b5080546121c3906127cf565b6000825580601f106121d3575050565b601f016020900490600052602060002090810190611a99919061222a565b8082111561222657600080825561220b60018301826121b7565b506002810180546001600160a01b03191690556003016121f1565b5090565b5b80821115612226576000815560010161222b565b6001600160e01b031981168114611a9957600080fd5b60006020828403121561226757600080fd5b813561180c8161223f565b60006020828403121561228457600080fd5b5035919050565b6000815180845260005b818110156122b157602081850181015186830182015201612295565b506000602082860101526020601f19601f83011685010191505092915050565b60006020808301818452808551808352604092508286019150828160051b87010184880160005b8381101561234d57603f19898403018552815160608151855288820151818a8701526123268287018261228b565b928901516001600160a01b03169589019590955250948701949250908601906001016122f8565b509098975050505050505050565b60208152600061180c602083018461228b565b80356001600160a01b038116811461238557600080fd5b919050565b6000806040838503121561239d57600080fd5b6123a68361236e565b946020939093013593505050565b6000806000606084860312156123c957600080fd5b6123d28461236e565b92506123e06020850161236e565b9150604084013590509250925092565b634e487b7160e01b600052604160045260246000fd5b600067ffffffffffffffff80841115612421576124216123f0565b604051601f8501601f19908116603f01168101908282118183101715612449576124496123f0565b8160405280935085815286868601111561246257600080fd5b858560208301376000602087830101525050509392505050565b600082601f83011261248d57600080fd5b61180c83833560208501612406565b600080604083850312156124af57600080fd5b82359150602083013567ffffffffffffffff8111156124cd57600080fd5b6124d98582860161247c565b9150509250929050565b6000602082840312156124f557600080fd5b61180c8261236e565b6000806040838503121561251157600080fd5b50508035926020909101359150565b6000806040838503121561253357600080fd5b61253c8361236e565b91506020830135801515811461255157600080fd5b809150509250929050565b60008060006040848603121561257157600080fd5b83359250602084013567ffffffffffffffff8082111561259057600080fd5b818601915086601f8301126125a457600080fd5b8135818111156125b357600080fd5b8760208285010111156125c557600080fd5b6020830194508093505050509250925092565b600080600080608085870312156125ee57600080fd5b6125f78561236e565b93506126056020860161236e565b925060408501359150606085013567ffffffffffffffff81111561262857600080fd5b8501601f8101871361263957600080fd5b61264887823560208401612406565b91505092959194509250565b634e487b7160e01b600052602160045260246000fd5b6003811061268857634e487b7160e01b600052602160045260246000fd5b9052565b6001600160a01b0385168152602081018490528215156040820152608081016126b8606083018461266a565b95945050505050565b6000806000606084860312156126d657600080fd5b6126df8461236e565b925060208401359150604084013567ffffffffffffffff81111561270257600080fd5b61270e8682870161247c565b9150509250925092565b81516001600160a01b031681526020808301519082015260408083015115159082015260608083015160808301916127529084018261266a565b5092915050565b6000806040838503121561276c57600080fd5b6127758361236e565b91506127836020840161236e565b90509250929050565b6020808252818101527f56656869636c654e46543a20746f6b656e20646f6573206e6f74206578697374604082015260600190565b602081016105fe828461266a565b600181811c908216806127e357607f821691505b602082108103610a8457634e487b7160e01b600052602260045260246000fd5b60208082526027908201527f56656869636c654e46543a2063616c6c6572206973206e6f742076656869636c604082015266329037bbb732b960c91b606082015260800190565b601f821115610ed157600081815260208120601f850160051c810160208610156128715750805b601f850160051c820191505b81811015611e765782815560010161287d565b815167ffffffffffffffff8111156128aa576128aa6123f0565b6128be816128b884546127cf565b8461284a565b602080601f8311600181146128f357600084156128db5750858301515b600019600386901b1c1916600185901b178555611e76565b600085815260208120601f198616915b8281101561292257888601518255948401946001909101908401612903565b50858210156129405787850151600019600388901b60f8161c191681555b5050505050600190811b01905550565b828152604060208201526000612129604083018461228b565b60006001820161298957634e487b7160e01b600052601160045260246000fd5b5060010190565b6001600160a01b03858116825284166020820152604081018390526080606082018190526000906129c39083018461228b565b9695505050505050565b6000602082840312156129df57600080fd5b815161180c8161223f56fea26469706673582212205eebfc774bd898b2f6447f3d8676036dd8dcc2981baae1709c026b9adc124a6f64736f6c63430008140033",
  "linkReferences": {},
  "deployedLinkReferences": {}
}